:10255D002D2D2D2D2D2D2D54204C4F572D2D2D2D19
:10256D002D2D2D2D002564200025642020002020F8
:10257D00202000202020002D2D2D2D2D2D2D5420FF
:10258D00484947482D2D2D2D2D2D2D002564003A20
:0B259D008448CB397964D63458CF6CE9
:1022780042000B00004200540000420029000042C6
:10228800002B00004100680041000E0042000800D9
:10229800004C002D000000000000000000000000BD
:1022A80041000D00410043004100590041005A001F
:1022B80041000A0041004400410048004100490132
:1022C80046004A0000000000004A00393F065B4F04
:0F22D800666D7D077F6F420025000041005B00AF
:0B2800007D5E7F681228B67FE87E0333
:10280B00E4FDFCC3ED9FEC9E5017E4FBFA00000BBC
:10281B00BB00010ABA03F6BBE8F30DBD00010C8047
:01282B00E2CA
:01282C002289
:10287F00E0FBA3E0FAA3E0F99000011205F1FFE4F9
:08288F00FD1221787F0A7E0092
:0E289700EF1F70011E144E6004000080F3223B
:102957008FAFECF5A7EDF5A675C7AA75C75543A4C4
:0529670001AEAEAF0659
:01296C002248
:10296D008FAFECF5A7EDF5A6AF038FAE75C7AA75C2
:06297D00C75543A401222E
:10298300A2AF9201C2AF75C7AA75C75543AA40A2A9
:032993000192AFFF
:01299600221E
:10220000A2AF9209E4C2AF75C7AA75C755439F0133
:102210007D04FC7FC0122957EF54F064F0703075D4
:10222000C7AA75C75543A5047B0F7FE112296D75B9
:10223000C7AA75C75553A5FBE59F20E6FB75C7AA3E
:1022400075C755759F0075C7AA75C755439F80759B
:10225000C7AA75C755539FFE75C7AA75C75543AA28
:1022600007122983AFAA74FF60FA75C7AA75C7550C
:0722700043AA80A20992AF0E
:012277002244
:10292500E4FF9000D6E0FEEFC39E500EED12061EAA
:0A2935000F740129F9E43AFA80E872
:01293F002275
:0B2510009000C4EBF0A3EAF0A3E9F098
:10251B00E4FF9000CAE0FEEFC39E50359000C7E089
:10252B00FBA3E0FAA3E0F91205D8FE9000C4E0FB90
:10253B00A3E0FAA3E0F9EE12061E0F9000C5E475B6
:10254B00F0011206859000C8E475F0011206858033
:01255B00C1BE
:01255C00225C
:10290800A2AF920AC2AF75C7AA75C755E4F59F75FD
:0C291800C7AA75C755759F80A20A92AF30
:012924002290
:1026B700E58730E43BAF84AD85EF25E0FFE433FEEB
:1026C700ED54017C002FFFEC3EFE74F12FFF74FFE9
:1026D7003EFEEF5401FDEEC313EF1375C7AA75C78E
:1026E70055F58475C7AA75C755AF058F855387EF0D
:0126F70022C0
:0429AB00AF027D01F9
:0E29AF00AE05A806EF088002C313D8FC132261
:1029E000AE05A8067401088002C333D8FC4FFF224D
:1029CF00AE05A8067401088002C333D8FCF45FFF7C
:0129DF0022D5
:0E2A3D00AE07EB60030229E0AF061229CF229C
:102164009000D7E0FBA3E0FAA3E0F9900001120588
:04217400F1FFE4FD96
:10217800AC07AA05EC54F02470602F24E0605224C8
:102188003070741229ABE433FBEC540FFDAFB1127D
:102198002A3D8FB1AF02E4FD1229AFE433FBEC54C2
:1021A8000FFDAFB2122A3D8FB2221229ABE433FBE6
:1021B800EC540FFDAFB3122A3D8FB3AF02E4FD120A
:1021C80029AFE433FBEC540FFDAFB4122A3D8FB4B2
:1021D800221229ABE433FBEC540FFDAFAC122A3DBD
:1021E8008FACAF02E4FD1229AFE433FBEC540FFDD2
:0821F800AFAD122A3D8FAD22AC
:102000009000D7E0FBA3E0FAA3E0F91205D8FFD2D5
:012010000BC4
:10201100EF54F02470605424E0700201B224306067
:102021000201BBEF540FB40800400201BB90203401
:1020310025E07301440149014E01530158015D013D
:10204100620167A20B928022A20B928122A20B92C3
:102051008222A20B928322A20B928422A20B92854E
:1020610022A20B928622A20B928722EF540FB40870
:1020710000504790207A25E073018A018F01940175
:1020810099019E01A301A801ADA20B929022A20B7E
:10209100929122A20B929222A20B929322A20B92D4
:1020A1009422A20B929522A20B929622A20B9297B6
:0B20B10022EF540F7004A20B92B0222B
:0F273500E0FBA3E0FAA3E0F99000011205F1FF29
:10274400EF54F02470601024E0601424307019EF0A
:10275400540FFDAF80800EEF540FFDAF908006EF55
:0A276400540FFDAFB00229AFC322ED
:0A2A7900EF540F42E844F052E82247
:0B2A580030000443E1012253E1FE22A4
:0517FB00C2EFD2EE2256
:1027E000122A79AF058F951217FB30EFFDE4F595AE
:1027F000AFC3EF75F010A4FFAEF0ADC2EF4DFF22F6
:05246E009000CEEDF02E
:10247300E49000D1F09000CFE0FF122A79A3E0F5B9
:1024830095E4A3F09000CEE0FF9000D1E0C39F500D
:10249300291217FB30EFFDAFC3EF75F010A4FFADAA
:1024A300C2EF4DFFE5F08FF01206B19000D1E004CA
:0D24B300F0740229F9E43AFA80CAE4F595C4
:0124C00022F9
:1020BC00E49000B8F0A3F07B017A0079BA9000CFDD
:1020CC007408F0A37402F07D0512246E7F02EF25D4
:1020DC00E024BAF582E43400F583E0FCA3E0FD9043
:1020EC0000B9E02DF09000B8E03CF00FEFB405DE45
:1020FC009000B8E0FEA3E0FF7C007D031206309058
:10210C0000B8EEF0A3EFF090000BE0FEA3E0FFE4CC
:10211C00FCFD9000B412083AE4FF7E10FDFC900028
:10212C00B4E0F8A3E0F9A3E0FAA3E0FB1206D0C0F8
:10213C0006C0079000B8E0FEA3E0FBAA06E4F9F89D
:10214C00D007D00612075B9000B412083A9000B486
:07215C00A3A3E0FEA3E0FFD6
:012163002259
:0F2A1000D293D294122893C294122893C2932285
:0B2A6300122893D293122893D29422E1
:1024C1004408FF1224D3E94408FF1224D3A3E044B3
:0224D10008FF02
:0224D300AD0753
:1024D500E4FBFA122893ED30E704D2948002C2940B
:1024E500ED25E0FDD293122893C2930BBB00010AA0
:1024F500EB64084A70DD7F147E00122897D2937F23
:0A250500197E00122897C293C294B9
:01250F0022A9
:1029F0001205D8FFC454F0FEEFC4540F4E02061E59
:0923B4007F887E131228977F0335
:0223BD00AC076B
:1023BF00EC54F090006DF0EC540FA3F07B017A0019
:1023CF00796E1229F090006DE0440490006CF0904B
:1023DF00006EE04404F9122A107F4E1224D39000AD
:1023EF006C1224CFA3E01224C1122A63EC640160A3
:1023FF0004ECB402067FD07E0780047F647E001257
:02240F0028970C
:0124110022A8
:1025A800EF54F0FCEF540F900070F07B017A007943
:1025B800701229F00C900070E004F0EC44059000D3
:1025C8006FF0A3E04405F9122A107F4E1224D3902D
:1025D800006F1224CFAF04EF1224C1122A637F6464
:0525E8007E00022897AF
:0725ED007F0A7E0012280B9B
:1025F400122A107F4E1224D3E4FF1224D3122A632A
:102604001228937F031223BD1223B41223B47F88AC
:102614007E131228977F021223BD7F281223BD7FC9
:0E262400061223BD7F0C1223BD7F010223BDD1
:0F2A1F00EFA805088005CEC313CE13D8F91322F4
:1028EA00AB07AA06AF057E007401A807088005C3D6
:0E28FA0033CE33CED8F9FFEE4AFEEF4BFF226D
:1028CA00AB07AA06AF057E007401A807088005C3F6
:1028DA0033CE33CED8F9F4FFEEF45AFEEF5BFF2283
:1029BD008F828E83EB60030228EAAE83AF821228EA
:0229CD00CA221C
:102675009000E5EBF0A3EAF0A3E9F09000E5E0FBBC
:10268500A3E0FAA3E0F91205D8FFE4FD1221789042
:1026950000E51221679000E51220039000E5E0FBBC
:1026A500A3E0FAA3E0F99000011205F1FFD20B02B5
:0226B5002011F2
:102412009000E8EBF0A3EAF0A3E9F09000E8E0FB1B
:10242200A3E0FAA3E0F99000011205F1FFD20B122A
:1024320020119000E81220039000E812287F9000FB
:10244200E8E0FBA3E0FAA3E0F99000011205F1FF36
:10245200C20B1220111228939000E8E0FBA3E0FACD
:0C246200A3E0F91205D8FFC20B02201104
:102355009000EBEBF0A3EAF0A3E9F01228939000CC
:10236500EBE0FBA3E0FAA3E0F99000011205F1FF11
:10237500D20B1220119000EB1220039000EB1228D3
:102385007F9000EBE0FBA3E0FAA3E0F990000112D7
:1023950005F1FFC20B1220111228939000EBE0FB10
:0F23A500A3E0FAA3E0F91205D8FFC20B02201142
:0E1D19009000D7EBF0A3EAF0A3E9F0A3EDF001
:101D2700E4A3F0C20C122164E49000DBF09000DB26
:101D3700E0FDC39408506C9000DAE0FF7E00C374A6
:101D4700079DFD122A1F920B9000D7E0FBA3E0FA34
:101D5700A3E0F99000011205F1FF12201112289358
:101D67001220001228939000D7E0FBA3E0FAA3E02B
:101D7700F91205D8FFC20B1220119000DBE0B4075F
:101D87001A1221649000D7E0FBA3E0FAA3E0F990D0
:101D970000011205F1FFD20B1220119000DBE004C5
:101DA700F0A1347F147E001228971220007F197E3D
:101DB700001228979000D7122735B3920C7F197E0F
:101DC700001228979000D7E0FBA3E0FAA3E0F912EE
:0A1DD70005D8FFC20B122011A20C68
:011DE10022DF
:0E1DE2009000DCEBF0A3EAF0A3E9F0A3EDF033
:101DF000E4FCA3F09000DC1221679000DCE0FBA380
:101E0000E0FAA3E0F99000011205F1FFD20B1220D5
:101E100011E4FC1228939000DC1220037F077E005F
:101E20001228979000E0E025E0F09000DC122735C2
:101E300050069000E0E004F07F037E0012289790A7
:101E400000DCE0FBA3E0FAA3E0F91205D8FFC20B27
:101E50001220110CECB408BB1228939000DC122164
:101E6000679000DCE0FBA3E0FAA3E0F99000011228
:101E700005F1FF9000DFE024FFB3920B1220111256
:101E800028939000DC1220037F327E001228979066
:101E900000DCE0FBA3E0FAA3E0F91205D8FFC20BD7
:081EA0001220119000E0E0FFA8
:011EA8002217
:1022E8009000EEEBF0A3EAF0A3E9F09000EE1221E3
:1022F800679000EEE0FBA3E0FAA3E0F9900001127A
:1023080005F1FFC20B1220119000EEE0FBA3E0FAEA
:10231800A3E0F91205D8FFC20B12201112289390DE
:1023280000EEE0FBA3E0FAA3E0F99000011205F14A
:10233800FFD20B1220111228939000EEE0FBA3E0CD
:0D234800FAA3E0F91205D8FFD20B02201114
:090D4000EEF0A3EFF07D887C13B6
:0A0D490090006CECF0FAA3EDF0FB53
:100D5300E4FCFD90007212083A90007612084600F7
:100D6300000000AF03AE02E4FCFD900072E0F8A3C4
:100D7300E0F9A3E0FAA3E0FB1206D0900072120898
:100D83003A900072E0FCA3E0FDA3E0FEA3E0FFE4E1
:100D9300FB7A10F9F812075B90007212083AE47FAD
:100DA300107E27FDFC900072E0F8A3E0F9A3E0FABF
:100DB300A3E0FB1206D090007612083A900076E08A
:100DC300FCA3E0FDA3E0FEA3E0FFC006C007900084
:100DD3006CE0FEA3E0FF900072E0F8A3E0F9A3E06B
:100DE300FAA3E0FBC3EF9BFBEE9AFAE499F9E498CC
:100DF300F8D007D00612075B90007612083A9000ED
:100E030076E0FCA3E0FDA3E0FEA3E0FFE412031AF7
:100E1300120F0290006E12083A90006EE0FCA3E0FD
:100E2300FDA3E0FEA3E0FF9025A412082A1200FB15
:100E330090006EE0F8A3E0F9A3E0FAA3E0FB120050
:100E4300FB90006EE0F8A3E0F9A3E0FAA3E0FB1245
:100E530000FBC004C005C006C00790006EE0FCA301
:100E6300E0FDA3E0FEA3E0FF9025A012082A1200F4
:100E7300FB90259C12082A12000AD003D002D0014D
:100E8300D00012000AA804A905AA06AB07E4FFFED6
:100E93007D807C3F12020490006E12083A90006E2F
:100EA300E0FCA3E0FDA3E0FEA3E0FF7B337A9379AC
:100EB3008878C312000A90006E12083A90006EE020
:0A0EC300FCA3E0FDA3E0FEA3E0FFA6
:010ECD002202
:040FF7008F828E83D4
:030FFB00E493FF7D
:010FFE0022D0
:0B1EA900900073EBF0A3EAF0A3E9F057
:101EB400C201A3E4F0A3F0A3F0A3F0A3F0A3F0A362
:101EC400F0A2AF9201C2AF900073E0FBA3E0FAA3CB
:101ED400E0F94A600FA3EBF0A3EAF0A3E9F0900065
:101EE40069EB800E900069E0F9A3E0FAA3E09000AA
:101EF40076C9F0A3EAF0A3E9F0ED4C600AAF0590CF
:101F04000054ECF0A3EFF09000797437F0A3E4F000
:101F1400A3F0A3F0900054E0FEA3E0FF90007BE068
:101F2400FCA3E0FDC39FEC9E503890007AE02DFFA7
:101F3400900079E03CFE120FF7900076E0FBA3E0FE
:101F4400FAA3E0F9EF12061E90007CE004F070069C
:101F540090007BE004F0900077E475F001120685B0
:061F640080B2A20192AF61
:011F6A002254
:10276E00AB07AA06ED75F080A42BFBE5F03AFAEB69
:10277E00F5A6AE02EEF5A775AEFF75C7AA75C755DD
:10278E00439F0175C7AA75C75543A50175AF22753D
:08279E00C7AA75C75543A40149
:0127A6002210
:10191F00C200900069E0F9A3E0FAA3E090006CC95F
:10192F00F0A3EAF0A3E9F0900054E0FCA3E0FDAED1
:10193F00047807CEC313CE13D8F9F9E490006FF0F3
:10194F00A3F0A3F0A3F0A2AF9200C2AFED4C7002D0
:10195F0041320990006F7437F0A3E4F0A3F0A3F0C5
:10196F00E9FF900071E0FCA3E0FDC39FEC940050F1
:10197F001B90006FE0FEA3E0FF12276E900072E055
:10198F0004F070DC900071E004F080D475C7AA7584
:10199F00C755439F0175C7AA75C75543A50175AFB5
:1019AF0021E4900071F0A3F0900054E0FEA3E0FF5B
:1019BF00900071E0FCA3E0FDC39FEC9E50439000AC
:1019CF006FE0FEA3E02DF5A6EEF5A790006CE0FB0F
:1019DF00A3E0FAA3E0F91205D8F5AE75C7AA75C74B
:1019EF005543A401122983900072E004F070069011
:1019FF000071E004F090006DE475F001120685802F
:101A0F00A775C7AA75C75553A5FE75C7AA75C7553C
:101A1F00539FFE7B007A007900E4FDFC121EA9A201
:031A2F000092AF73
:011A32002291
:0F2A2E00D290D291122893C291122893C2902273
:0226F800AD072C
:1026FA00E4FBFA122893ED30E704D2918002C291EA
:10270A00ED25E0FDD290122893C2900BBB00010A7E
:10271A00EB64084A70DD7F147E00122897D2907FFE
:0A272A00197E00122897C290C29198
:012734002282
:0B2A6E00122893D290122893D29122DC
:10299700D291D290122A2E7F481226F87F51122602
:0429A700F8022A6E9A
:1028A50090004AE02439F582E43400F583E0FD7FA9
:0128B5006AB8
:1028B600AC05AD07122A2EAF051226F8AF04122674
:0428C600F8022A6E7C
:02263200AD07F2
:10263400E4FCFBD291122893D2907F077E001228EB
:1026440097EB25E0FB3091010B7F037E0012289766
:10265400C2900CECB408DE122893ED24FFB39291DF
:10266400122893D2907F327E00122897C290AF0333
:012674002243
:10294000E4FD122A2E7F491226F87F01122632ADAD
:0629500007122A6EAF051C
:01295600225E
:081FF700C3EE94005001222208
:0627A7007B017A00790FAE
:1027AD0090006CEBF0A3EAF0A3E9F090006CE0FB75
:1027BD00A3E0FAA3E0F91205D8601790006CA3E42A
:1027CD0075F00112069BA9F0FA1205D8FF1225A883
:0327DD0080D9227E
:061A330090009C12083A2D
:101A39009000A0E0FCA3E0FDA3E0FEA3E0FF90007E
:101A49009CE0F8A3E0F9A3E0FAA3E0FB1202A1509D
:101A5900149000A0E0FCA3E0FDA3E0FEA3E0FF904A
:101A6900009C12083A9000A4E0FCA3E0FDA3E0FE6C
:101A7900A3E0FF90009CE0F8A3E0F9A3E0FAA3E05B
:101A8900FB1202A1601640149000A4E0FCA3E0FD43
:101A9900A3E0FEA3E0FF90009C12083A9000A0E0AA
:101AA900F8A3E0F9A3E0FAA3E0FBA3E0FCA3E0FDBF
:101AB900A3E0FEA3E0FF120006C004C005C006C0F3
:101AC900079000A8E0F8A3E0F9A3E0FAA3E0FBA3DC
:101AD900E0FCA3E0FDA3E0FEA3E0FF120006D003B3
:101AE900D002D001D0001202049000B012083A903E
:101AF90000A0E0F8A3E0F9A3E0FAA3E0FB90009CC2
:101B0900E0FCA3E0FDA3E0FEA3E0FF1200069000C5
:101B1900B0E0F8A3E0F9A3E0FAA3E0FB1200FB9020
:101B290000A8E0F8A3E0F9A3E0FAA3E0FB02000AA9
:10282D0075B1FC75B20375B3C675B43975AC01E4F9
:10283D00F5ADF580F590F5B0C293C29453B3FD5349
:0B284D00B4FD53B3BF43B440D2962249
:102A000020920790000D7401F022E490000DF02256
:10100000C3900028E094F4900027E064809481501D
:1010100002615E7F801223BD90006F74FFF0A374A5
:1010200025F0A3745DF07B017A00790F120922127A
:1010300027A77FC01223BD7F541225A87F34122515
:10104000A87F3A1225A8900031E0FEA3E0FFC3EE8E
:1010500094004038EF94E7EE94035030EF9463EE41
:10106000940090006F74FF400DF0A37425F0A374FA
:1010700072F0A3EE802FF0A37425F0A37476F090A5
:101080000031E0FFA3E0900072CF801990006F74F0
:10109000FFF0A37425F0A3747BF0900031E0FFA370
:1010A000E0900072CFF0A3EFF07B017A00790F128D
:1010B00009221227A77F541225A87F351225A87F61
:1010C0003A1225A890002FE0FEA3E0FFC3EE9400A3
:1010D0004038EF94E7EE94035030EF9463EE9400C1
:1010E00090006F74FF400DF0A37425F0A37472F0AC
:1010F000A3EE802FF0A37425F0A37476F090002F58
:10110000E0FFA3E0900072CF801990006F74FFF0B1
:10111000A37425F0A3747BF090002FE0FFA3E09070
:101120000072CFF0A3EFF07B017A00790F12092251
:101130001227A77F541225A87F361225A87F3A12BE
:1011400025A890002DE0FEA3E0FFC3EE94004040F0
:10115000EF94E7EE94035038900032E094639000EF
:1011600031E0940090006F74FF400FF0A37425F0FD
:10117000A37472F0900072EE802FF0A37425F0A398
:101180007472F090002DE0FFA3E0900072CF801900
:1011900090006F74FFF0A37425F0A37480F09000AA
:1011A0002DE0FFA3E0900072CFF0A3EFF07B017A77
:1011B00000790F1209221227A77F941223BD9000F5
:1011C0006F74FFF0A37425F0A37484F07B017A00A0
:1011D000790F1209221227A77FD41223BD7F541240
:1011E00025A87F311225A87F3A1225A8900037E064
:1011F000FEA3E0FFC3EE94004038EF94E7EE9403C3
:101200005030EF9463EE940090006F74FF400DF047
:10121000A37425F0A37472F0A3EE802FF0A37425BD
:10122000F0A37476F0900037E0FFA3E0900072CF57
:10123000801990006F74FFF0A37425F0A3747BF005
:10124000900037E0FFA3E0900072CFF0A3EFF07BB7
:10125000017A00790F1209221227A77F541225A8BC
:101260007F321225A87F3A1225A8900035E0FEA310
:10127000E0FFC3EE94004038EF94E7EE9403503063
:10128000EF9463EE940090006F74FF400DF0A37430
:1012900025F0A37472F0A3EE802FF0A37425F0A3C1
:1012A0007476F0900035E0FFA3E0900072CF8019D3
:1012B00090006F74FFF0A37425F0A3747BF090008E
:1012C00035E0FFA3E0900072CFF0A3EFF07B017A4E
:1012D00000790F1209221227A77F541225A87F3305
:1012E0001225A87F3A1225A8900033E0FEA3E0FF64
:1012F000C3EE94004038EF94E7EE94035030EF943F
:1013000063EE940090006F74FF400DF0A37425F01D
:10131000A37499F0A3EE802FF0A37425F0A3747248
:10132000F0900033E0FFA3E0900072CF80199000AE
:101330006F74FFF0A37425F0A37480F0900033E085
:10134000FFA3E0900072CFF0A3EFF07B017A007969
:0F1350000F1209221227A7E4900027F0A3F02222
:1016AA00900027E07004A3E0640A70277D02FF120D
:1016BA0027E090005C120D4012035890002DEEF0C6
:1016CA00A3EFF0D394E7EE94035002E1FAE490001A
:1016DA002DE1DB900027E07004A3E0641470287DFC
:1016EA00027F011227E090005E120D40120358900B
:1016FA00002FEEF0A3EFF0D394E7EE94035002E14B
:10170A00FAE490002FE1DB900027E07004A3E06484
:10171A001E70287D027F021227E0900060120D40A1
:10172A00120358900031EEF0A3EFF0D394E7EE9451
:10173A00035002E1FAE4900031E1DB900027E07007
:10174A0004A3E0642870287D027F031227E090003A
:10175A0062120D40120358900033EEF0A3EFF0D35B
:10176A0094E7EE94035002E1FAE490003380629029
:10177A000027E07004A3E0643270267D027F041221
:10178A0027E0900064120D40120358900035EEF0E5
:10179A00A3EFF0D394E7EE94034055E4900035802C
:1017AA0030900027E07004A3E0643C70287D027F3B
:1017BA00051227E0900066120D4012035890003778
:1017CA00EEF0A3EFF0D394E7EE94034023E4900005
:1017DA0037F0A3F022900027E07004A3E06446707B
:1017EA000F7D027F061227E0900023EEF0A3EFF0B0
:0117FA0022CC
:0D2A4B00538EBF53DFF843DF0143DE10223E
:101C3F00C004C005C006C0079000A01208460000EF
:101C4F0000009000A412084642F000009000A81275
:101C5F000846425C00009000AC12084642B40000F7
:101C6F00D007D006D005D004121A331203589000B3
:101C7F00E112083AA2AF920DC2AF75C7AA75C75548
:101C8F00759101A20D92AF53DF3F53DFEFE47F0356
:101C9F00FEFDFC9000E1E0F8A3E0F9A3E0FAA3E079
:101CAF00FB1206D0E47B0AFAF9F812075B780812E8
:101CBF0007FB8FC4E47F03FEFDFC9000E1E0F8A377
:101CCF00E0F9A3E0FAA3E0FB1206D0E47B0AFAF9ED
:101CDF00F812075B8FCC9000E1E0FCA3E0FDA3E0DE
:101CEF00FEA3E0FF78081207FB8FD19000E1A3A3BA
:101CFF00A3E0F5D9A2AF920DC2AF75C7AA75C755AC
:091D0F00E4F591A20D92AFD2DFC0
:011D180022A8
:101B390090000DE0600261C0900029E0FEA3E0FF83
:101B490090002DE0FCA3E0FDC39FEC9E501AC390CA
:101B59000030E09F90002FE09E500DC3900032E0CE
:101B69009F900031E09E4017900059E07006D29591
:101B7900C296D2802082089000597401F0C29590D3
:101B89000029E0FEA3E0FFC3ED9FEC9E5023C39024
:101B99000030E09F90002FE09E5016C3900032E085
:101BA9009F900031E09E5009E4900059F0C295C21F
:101BB90080E490005AF02290002BE0FEA3E0FF9011
:101BC9000033E0FCA3E0FDC39FEC9E501AC39000D4
:101BD90036E09F900035E09E500DC3900038E09F9D
:101BE900900037E09E401790005AE07006D295C2E7
:101BF90096D28020820890005A7401F0C295900014
:101C09002BE0FEA3E0FFC3ED9FEC9E5023C39000A1
:101C190036E09F900035E09E5016C3900038E09F53
:101C2900900037E09E5009E490005AF0C295C280B6
:061C3900E4900059F022C6
:10135F00900045E0B4440D90005BE004F07FC87E40
:10136F000012280B90005BE0C394024002E4F0905F
:10137F00005BE0600281FB1228A590004BE024394E
:10138F00F582E43400F583E0FD7F6C1228B69000FF
:10139F004CE02439F582E43400F583E0FD7F6E12D2
:1013AF0028B67D387F681228B690004BE075F00A9A
:1013BF00A4FDACF090004AE075F064A42DFFE5F0B9
:1013CF003CFE90004CE07C002FFFEC3EFE9000298D
:1013DF00E06E7003A3E06F600A900029EEF0A3EFB8
:1013EF00F0816B900029E0FCA3E0FD6F7002EC6EC2
:1013FF007063900025E064057004A3E064DC704521
:10140F00D3ED9478EC94004009900029E4F0A37494
:10141F0078F0900056E0FF900029E0FCA3E0FD6F0C
:10142F007001EC6019900056EDF012191F12280090
:10143F007D387F681228B67F147E0012280BE49047
:10144F000025F0A3F0900026E004F0700F90002527
:10145F00E004F08007E4900025F0A3F0900045E051
:10146F00FF64456005EF644D70161228A590004A81
:10147F00E004F0E0C3940A4002E4F090004AC10B8C
:10148F00900045E0FF64466005EF645670279000BA
:10149F004BE02439F582E43400F583E0FD7F6C12D4
:1014AF0028B690004BE004F0E0C3940A4002E4F049
:1014BF0090004BC14E900045E0FF64476007EF641A
:1014CF005F6002C1A990004CE02439F582E434003A
:1014DF00F583E0FD7F6E1228B690004CE004F0E03B
:1014EF00C3940A4002E4F090004CC19190005BE07D
:1014FF0064016002C1A990004D1228A890004EE02F
:10150F002439F582E43400F583E0FD7F6C1228B6B0
:10151F0090004FE02439F582E43400F583E0FD7F3D
:10152F006E1228B67D767F681228B690004EE07551
:10153F00F00AA4FDACF090004DE075F064A42DFF0F
:10154F00E5F03CFE90004FE07C002FFFEC3EFE905C
:10155F00002BE06E7003A3E06F600A90002BEEF09B
:10156F00A3EFF0807290002BE0FCA3E0FD6F700200
:10157F00EC6E705C900025E064057004A3E064DC01
:10158F00703ED3ED9478EC9400400990002BE4F07A
:10159F00A37478F0900057E0FF90002BE0FCA3E0DD
:1015AF00FD6F7001EC6012900057EDF012191F12D1
:1015BF0028007D767F681228B6E4900025F0A3F00E
:1015CF00900026E004F0700F900025E004F08007F3
:1015DF00E4900025F0A3F0900045E0FF644560051E
:1015EF00EF644D702790004D1228A890004DE00435
:1015FF00F0E0C3940A4002E4F090004DE02439F586
:10160F0082E43400F583E0FD7F6AC19F900045E0DE
:10161F00FF64466005EF6456703590004EE0243944
:10162F00F582E43400F583E0FD7F6C1228B690005C
:10163F004EE004F0E0C3940A4002E4F090004EE064
:10164F002439F582E43400F583E0FD7F6C8041900E
:10165F000045E0FF64476005EF645F703D90004F09
:10166F00E02439F582E43400F583E0FD7F6E122823
:10167F00B690004FE004F0E0C3940A4002E4F0900B
:10168F00004FE02439F582E43400F583E0FD7F6EEE
:0B169F001228B67FC87E0012280B2224
:101800001226B712282DD200122A581225F41225BA
:10181000ED1225ED1225ED1225ED7F0A7E0012282E
:101820000B1229977D3F7F681228B67D3F7F6A1291
:1018300028B67D3F7F6C1228B67D3F7F6E1228B69A
:101840007B017A0079567D037C00121EA990005618
:10185000E0FF900029E4F0A3EFF0900057E0FF9044
:10186000002BE4F0A3EFF012191F7F147E00122862
:101870000B900029E0FAA3E0FB7C007D64FFAE0240
:1018800012063090004AEFF07C007D0AAF03AE02F2
:101890001206307C007D0A120630A3EDF09000297C
:1018A000E0FEA3E0FF7C007D0A12063090004CEDC4
:1018B000F090002BE0FAA3E0FB7C007D64FFAE0219
:1018C00012063090004DEFF07C007D0AAF03AE02AF
:1018D0001206307C007D0A120630A3EDF090002B3A
:1018E000E0FEA3E0FF7C007D0A12063090004FED81
:1018F000F0122940900045EFF012135F1216AA1261
:101900002A00121000121B39900028E004F0700623
:0F191000900027E004F07F017E0012280B80D2A8
:100003000203C4E86480F8E933E83360110460F064
:10001300ED33EC337009E8FCE9FDEAFEEBFF220463
:1000230060DED3EB9FEA9EE99DE8C2E78CF0C2F75E
:1000330095F0400CE8CCF8E9CDF9EACEFAEBCFFB2A
:1000430012038F85D0F05804700320D5B3E80470F1
:10005300075002B2D50203CE92D5EC0460F7E4CC8C
:10006300C0E0C398F8603B94186008400DD0E0FBF3
:100073000203A6E4FBFAC9FC8028E830E406E4C9DD
:10008300FBE4CAFCE830E305E4C9CACBFCE8540747
:100093006010F8C3E913F9EA13FAEB13FBEC13FC52
:1000A300D8F130F52FC3E49CFCEF9BFFEE9AFEEDF5
:1000B30099FDD0E0FBEF4E4D4C701222DB0302039F
:1000C300CBEC2CFCEF33FFEE33FEED33FDED30E7ED
:1000D300EB0203A6EF2BFFEE3AFEED39FDD0E0FB7A
:1000E30050130BBB00030203CEED13FDEE13FEEF23
:0800F30013FFEC13FC0203A64D
:1000FB00EC4D6011E8497017ED33EC3304600DE4FF
:10010B00FCFFFEFD22E933E8330470F80203C4124E
:10011B00038F58046009E4CC24815006285009024F
:10012B0003CE2840030203CBC0E0EB4A7044B980F6
:10013B0006D0E0FB0203BAEF4E701CBD8008EBFF4C
:10014B00EAFEE9FD80EBE98DF0A4FEE5F00201E4A7
:10015B00E9CDF9EAFEEBFFEF89F0A4FCE5F0CE89DF
:10016B00F0A42EFFE435F0CD89F0A42DFEE435F09C
:10017B008067EF4E7005BD80D780C3EF8BF0A4ACCA
:10018B00F0EE8BF0A42CFCE435F0F8EF8AF0A42C05
:10019B00E5F038FCE433CB8DF0A42CFCE5F03BF818
:1001AB00EE8AF0A42CFCE5F038F8E433CF89F0A408
:1001BB002CFCE5F038CF3400CE89F0A42FFFE5F00E
:1001CB003EFEE433C98DF0A42EFEE5F039CD8AF066
:1001DB00A42FFFE5F03EFEE43DFD33D0E0FB5007DE
:1001EB000BBB000F0203CEEC2CFCEF33FFEE33FE08
:0601FB00ED33FD0203A636
:100201000203CEEC5D046005E8590470030203C4E7
:1002110012038F580460F6EC4860F2EC7004FDFEA6
:10022100FF22C860DB2481C85009C39860025006D0
:100231000203CB9850CAF582E9294B4A7005AB827B
:100241000203BA75F0007C1A7880C3EF9BEE9AED39
:1002510099400DC3EF9BFFEE9AFEED99FDE842F048
:10026100DC23ACF0D0E0FFD0E0FED0E0FDAB82209B
:10027100E7101BEB60BAEC2CFCEF33FFEE33FEED25
:1002810033FD0203A6E803F830E705C0F075F0007E
:10029100EF2FFFEE33FEED33FD40B830E7C280AA09
:1002A10074F8CC6480CCC86480C8F58204604FC304
:1002B100EB9FF5F0EA9E42F0E99D42F0E89C45F0A3
:1002C100603C501DE5825FFFE582D313CB5BCBF42D
:1002D1002B5582FB50280ABA002409B90020088056
:1002E1001DE5825BFBE582D313CF5FCFF4C3132FF0
:1002F1005582FF50090EBE00050DBD00010CC3EB78
:100301009FF5F0EA9E42F0E99D42F0E89C45F060DD
:0903110007CC4820E701B3EC22FF
:10031A0075F020800E75F010800575F0087D007E5E
:10032A00007F003392D530D5031207EDEC3340102D
:10033A00EF33FFEE33FEED33FDEC33FCD5F0ED2267
:0E034A00E5F0247EA2D513CC92E7CDCEFF22A3
:10035800EDD2E7CD33EC3392D524814006E4FFFE9D
:10036800FDFC22FCE4CFCECDCC24E0501174FF80FC
:10037800EDC3CC13CCCD13CDCE13CECF13CF047099
:07038800F030D5DE0207EDA5
:1008BD00E508246FF582E43400F583E00508229005
:1008CD00006C30070390006FE475F0011208770299
:1008DD0005D82000E97F2ED2008018EF540F249008
:1008ED00D43440D4FF30040BEF24BFB41A005003AE
:1008FD002461FFE50960021509050CE50C70020580
:10090D000B30070E90006CE475F001120877EF02C2
:10091D00061E0228587403D2078003E4C207F508A7
:10092D0090006C12088EE4F509F50BF50CE50960E5
:10093D00077F2012090080F5750AFFC201C200C2AF
:10094D0002C203C205C206C2081208CCFF700D30E8
:10095D0007057F00120911AF0CAE0B22B4255FC243
:10096D00D5C2041208CCFF24D0B40A00501A75F079
:10097D000A780930D50508B6FF0106C6A426F6206B
:10098D00D5047002D20380D924CFB41A00EF5004DD
:10099D00C2E5D204020C03D20180C6D20080C0D2BF
:1009AD000280BCD2D580BAD20580B47F2012090056
:1009BD002002077401B5090040F11208BDFF1209AC
:1009CD000002093AD208D20680951208BDFB120822
:1009DD00BDFA1208BDF94A4B700679017A0D7BFFFD
:1009ED0020022EE509602A7E008E82758300120595
:1009FD00F160060EEE650A70F0C2D5EBC0E0EAC0FC
:100A0D00E0E9C0E0EE120C64D0E0F9D0E0FAD0E0FD
:100A1D00FB1205D8FF60AAEBC0E0EAC0E0E9C0E038
:100A2D00120900D0E02401F9D0E03400FAD0E0FB47
:100A3D00E50A0460DCD50AD98087D20280A2120CA7
:100A4D004660F7E50A7001041203D9A90A600DE5A5
:100A5D000A600914F50A120CEEEF60F3EA30E702B2
:100A6D00F404C3995079EAF4250A0430E701E4044B
:100A7D00F50A800D120C4660C1EA050A250A12031B
:100A8D00D9EA90009BF030E701E4250A04D50A0469
:100A9D0020050114120C64E4C0E0120CEE90009BD2
:100AAD00E0601320E70714F01208E8802204F0D06C
:100ABD00E014C0E07F001208E8E50A60071208DFC5
:100ACD00150A800B3005031208DFD0E002093AD079
:100ADD00E00480C4120C46609EE50A041203D9900E
:100AED00009BEAF0E50A2005026001042404120CC3
:010AFD006494
:100AFE0074FF04C0E0120CEE1208E8E50A200502AD
:100B0E0060031208DFD0E0B50AE87F451208F290C4
:100B1E00009BE07F2B30E7047F2DF404C0E0120928
:100B2E0000D0E075F00A84C0F01208E9D0E0120897
:100B3E00E902093A791080027908C206C2088008D3
:100B4E00D2D5790A8004790AC2D5E50A047002F575
:100B5E000AE4FAFDFEFF1208BDFC7B082001131209
:100B6E0008BDFD7B1030000A1208BDFE1208BDFF45
:100B7E007B20EC3382D592D55013C3E43000069F10
:100B8E00FFE49EFEE42001039DFDE49CFCE4CBF813
:100B9E00C201EC700CCFCECDCCE824F8F870F38007
:100BAE0017C3EF33FFEE33FEED33FDEC33FCEB33C7
:100BBE00FB994002FB0FD8E9EB300105F8D0E0C4F9
:100BCE0048B201C0E00AEC4D4E4F78207B0070C257
:100BDE00EAB50A0040BCC0E0120C66D0F0D0E020AE
:100BEE000104C4C0E0C4B201C0F01208E9D0F0D5CF
:100BFE00F0EB02093A12089709D7530B425809A88D
:100C0E004C09A4420B464F0B4E440B4E4909BD43B3
:100C1E000B54550A81460AE1450A4B470D215009EE
:100C2E00AC2D09B02E09D32B09B42309D1200D0AFE
:100C3E002A096C48000009CBE50AB4FF03750A06C1
:100C4E001208BDFC1208BDFD1208BDFE1208BDFF44
:100C5E00900094020416790AA2D5200314300509D7
:100C6E00B910020404B9080104A2D52006025001ED
:100C7E00042002689202B509005034C0E07F203093
:100C8E0003197F30A20272067205500F120CBDC2FC
:100C9E0002C206C205C2087F30800F300503E9C0CC
:100CAE00E0120900300503D0E0F9D0E0B509CC30F0
:100CBE0005177F30B9100C1209007F583004077FDA
:100CCE00788003B908031209003002057F2D02094E
:100CDE00007F202008F87F2B2006F322920280CF7F
:100CEE007F00B40700500B2494F582E43400F583A2
:100CFE00E0FF22286E756C6C2900D2011208BD30FF
:100D0E0001F8C201780930D50108F602096C2D50A0
:100D1E004349581208BD2403B405004001E4900D68
:100D2E001C931208F1743A1208F1D20375090402E9
:020D3E000B4266
:100ECE003E9248DA3ECCCCCD3F2AAAAB4000000081
:100EDE003F8000003F9837F03FB504F33FD744FC06
:100EEE003E3172173EB172173F0515913EDE5BD94A
:100EFE00D2008002C200EDD2E7F8CD33EC3304709D
:100F0E000BBD800592D50203CE0203C440FBD31461
:100F1E0060F2F5F07C3FEE7A00C39496C8948B4055
:100F2E00230AC89469C8941A401A0AC89468C894C7
:100F3E001F40110AC8945AC89425400805F07A003B
:100F4E00CDC2E7CDC0F090007A12083AEA2323C052
:100F5E00E024DEF582E4340EF58312082A12000A2C
:100F6E00ECC0E0EDC0E0EEC0E0EFC0E012080E9085
:100F7E00007A12081E120006D0E0FBD0E0FAD0E094
:100F8E00F9D0E0B2E7F812020490007A12083A9013
:100F9E000ECE740312051B90007A12081E1200FB6F
:100FAE00D0E0600F24EAF582E4340EF58312082AAD
:100FBE0012000A90007A12083AD0E0C3947FFDE442
:100FCE009400FC12031F7B187A727931783F12005D
:100FDE00FB90007A12081E12000A30000B7BD97AA1
:090FEE005B79DE783E1200FB2263
:10038F00E9D2E7C933E833F892D5EDD2E7CD33ECB4
:07039F0033FC5002B2D5222D
:1003A600EC30E7100FBF000C0EBE00080DBD0004B8
:1003B6000BEB6014A2D5EB13FCED92E7FD2274FF64
:1003C600FCFDFEFF22E480F8A2D574FF13FC7D80BD
:0303D600E480EFD1
:1003D900F920E73624F950037907E4F42402FBE510
:1003E90082158270021583DBF6E024FB501BE9605D
:1003F90014E4F0E582158270021583E004F0B40A72
:0D04090008E4F0D9EE7401F00A22C2D522F9
:10041600ED33EC3392D5FA602AB4FF33EDC2E77BB5
:10042600FF60067A04793BE4227A04794420D504F5
:100436007A04793F224E614E002B494E46002D49E3
:100446004E4600E47A08F0A3DAFC7B00740722C06B
:1004560083C082ECC0E0EDC0E0EEC0E0EFC0E0EAB1
:1004660075F010A4CAABF075F04DA42BFBE435F083
:10047600FCEA2410FAEB34C5FBEC34D9FCEDC2E7F8
:10048600FF75F056A4F42411C5F0F434C58FF0A41A
:100496002AE5F03BE43CF020E714120598D0E0FF93
:1004A600D0E0FED0E0FDD0E0FC1202048014F4049B
:1004B600120598D0E0FFD0E0FED0E0FDD0E0FC12BF
:1004C60000FBD082D083E0FAEDD2E7CD33EC3324C3
:1004D60082FBE4C3CF33CFCE33CECD33CD33DBF384
:1004E6007B0775F00A846004F0A31B0AE5F0F0A30D
:1004F6008FF0740AA4FFACF08EF0740AA42CFEAC44
:10050600F050010C8DF0740AA42CFDE435F0F0A334
:05051600DBDE7407228A
:10051B00C0E0EFFBEEFAEDF9ECF81200FBD0E0F5E2
:10052B00F0EFFBEEFAEDF9ECF812080EA3A3A3A380
:10053B00E8C0E0E9C0E0EAC0E0EBC0E0C0F01200C8
:10054B00FB12082AA3A3A3A312000AD0F0D0E0FB4E
:0D055B00D0E0FAD0E0F9D0E0F8D5F0D422DD
:100568003F8000004120000042C80000447A00009B
:10057800461C400047C35000497424004B1896801D
:100588004CBEBC205A0E1BCA6753C21C749DC5AE14
:10059800FB60065407601C23231205C6EB54386021
:1005A800091205B21205C11200FBECF8EDF9EEFADA
:1005B800EFCB22EB1205C180F1543803241C9005BF
:1005C80068FE93FC0EEE93FD0EEE930ECE93FF2283
:03000000021F6B71
:0C1F6B00787FE4F6D8FD758121021FB2DA
:1005D800BB010689828A83E0225002E722BBFE0221
:0905E800E32289828A83E4932254
:1005F100BB010CE58229F582E5833AF583E02250BF
:1006010006E92582F8E622BBFE06E92582F8E22208
:0D061100E58229F582E5833AF583E4932222
:10061E00BB010689828A83F0225002F722BBFE01BB
:02062E00F322B5
:10063000BC000BBE0029EF8DF084FFADF022E4CCAE
:10064000F875F008EF2FFFEE33FEEC33FCEE9DEC77
:10065000984005FCEE9DFE0FD5F0E9E4CEFD22EDBD
:10066000F8F5F0EE8420D21CFEADF075F008EF2F07
:10067000FFED33FD4007985006D5F0F222C398FDF8
:050680000FD5F0EA2295
:10068500C5F0F8A3E028F0C5F0F8E5821582700200
:060695001583E038F0229D
:10069B00A3F8E0C5F025F0F0E58215827002158312
:0606AB00E0C838F0E8226F
:1006B100BB010A89828A83F0E5F0A3F0225006F794
:0F06C10009A7F01922BBFE06F3E5F009F3192291
:1006D000E88FF0A4CC8BF0A42CFCE98EF0A42CFCC9
:1006E0008AF0EDA42CFCEA8EF0A4CDA8F08BF0A447
:1006F0002DCC3825F0FDE98FF0A42CCD35F0FCEBA6
:100700008EF0A4FEA9F0EB8FF0A4CFC5F02ECD396A
:0F071000FEE43CFCEAA42DCE35F0FDE43CFC22D7
:10071F0075F008758200EF2FFFEE33FECD33CDCC91
:10072F0033CCC58233C5829BED9AEC99E582984014
:10073F000CF582EE9BFEED9AFDEC99FC0FD5F0D6F1
:10074F00E4CEFBE4CDFAE4CCF9A88222B800C1B91B
:10075F000059BA002DEC8BF084CFCECDFCE5F0CB59
:10076F00F97818EF2FFFEE33FEED33FDEC33FCEB92
:10077F0033FB10D703994004EB99FB0FD8E5E4F94D
:10078F00FA227818EF2FFFEE33FEED33FDEC33FC3A
:10079F00C933C910D7059BE99A4007EC9BFCE99A2E
:1007AF00F90FD8E0E4C9FAE4CCFB2275F010EF2F73
:1007BF00FFEE33FEED33FDCC33CCC833C810D70773
:1007CF009BEC9AE899400AED9BFDEC9AFCE899F8AE
:0E07DF000FD5F0DAE4CDFBE4CCFAE4C8F92241
:0E07ED00C3E49FFFE49EFEE49DFDE49CFC221D
:1007FB00E8600FECC313FCED13FDEE13FEEF13FFDC
:03080B00D8F122FF
:10080E00E493FC740193FD740293FE740393FF2230
:0C081E00E0F8A3E0F9A3E0FAA3E0FB225D
:10082A00E493F8740193F9740293FA740393FB2224
:0C083A00ECF0A3EDF0A3EEF0A3EFF02231
:10084600A8828583F0D083D08212085D12085D12DB
:10085600085D12085DE473E493A3C583C5F0C58300
:10086600C8C582C8F0A3C583C5F0C583C8C582C8FC
:01087600225F
:10087700F8E0FBA3A3E0F925F0F0E582158270020A
:070887001583E0FA38F022AE
:09088E00EBF0A3EAF0A3E9F0226B
:10089700D083D082F8E4937012740193700DA3A3F0
:1008A70093F8740193F5828883E473740293686004
:0608B700EFA3A3A380DF04
:10285800EFB40A07740D122863740A309811A89906
:10286800B8130CC2983098FDA899C298B811F630E0
:0728780099FDC299F59922B8
:101F7700021800E493A3F8E493A34003F68001F268
:101F870008DFF48029E493A3F85407240CC8C3336B
:101F9700C4540F4420C8834004F456800146F6DF3A
:101FA700E4800B0102040810204080902278E47E30
:101FB700019360BCA3FF543F30E509541FFEE4932F
:101FC700A360010ECF54C025E060A840B8E493A3F6
:101FD700FAE493A3F8E493A3C8C582C8CAC583CA21
:101FE700F0A3C8C582C8CAC583CADFE9DEE780BED9
:0122E70000F6
:00000001FF
