:1025FF002D2D2D2D2D2D2D54204C4F572D2D2D2D77
:10260F002D2D2D2D00256420002564202000202055
:10261F00202000256400202020002D2D2D2D2D2D74
:10262F002D5420484947482D2D2D2D2D2D2D003A65
:0B263F008448CB397964D63458CF6C46
:10238B0042000B00004200550000420029000042B1
:10239B00002B00004100670041000E0042000800C6
:1023AB00004C002D000000000000000000000000A9
:1023BB0041000D00410043004100540041000A0060
:1023CB0041004400410048004100490146004A00D9
:1023DB0000000000004A00393F065B4F666D7D0729
:0B23EB007F6F420025000041005A00F7
:0B28AB007D5E7F681229147FE87E0329
:1028B600E4FDFCC3ED9FEC9E5017E4FBFA00000B11
:1028C600BB00010ABA03F6BBE8F30DBD00010C809C
:0128D600E21F
:0128D70022DE
:1027D700E0FBA3E0FAA3E0F99000011205F1FFE4A2
:0827E700FD1221927F0A7E0021
:0E27EF00EF1F70011E144E6004000080F322E4
:1029D5008FAFECF5A7EDF5A675C7AA75C75543A446
:0529E50001AEAEAF06DB
:0129EA0022CA
:1029EB008FAFECF5A7EDF5A6AF038FAE75C7AA7544
:0629FB00C75543A40122B0
:102A0100A2AF9201C2AF75C7AA75C75543AA40A22A
:032A11000192AF80
:012A1400229F
:1022A600A2AF9209E4C2AF75C7AA75C755439F018D
:1022B6007D04FC7FC01229D5EF54F064F0703075B0
:1022C600C7AA75C75543A5047B0F7FE11229EB7595
:1022D600C7AA75C75553A5FBE59F20E6FB75C7AA98
:1022E60075C755759F0075C7AA75C755439F8075F5
:1022F600C7AA75C755539FFE75C7AA75C75543AA82
:1023060007122A01AFAA74FF60FA75C7AA75C755E6
:0723160043AA80A20992AF67
:01231D00229D
:1029A300E4FF9000D5E0FEEFC39E500EED12061E2D
:0A29B3000F740129F9E43AFA80E8F4
:0129BD0022F7
:0B25B2009000C3EBF0A3EAF0A3E9F0F7
:1025BD00E4FF9000C9E0FEEFC39E50359000C6E0E9
:1025CD00FBA3E0FAA3E0F91205D8FE9000C3E0FBEF
:1025DD00A3E0FAA3E0F9EE12061E0F9000C4E47515
:1025ED00F0011206859000C7E475F0011206858092
:0125FD00C11C
:0125FE0022BA
:10298600A2AF920AC2AF75C7AA75C755E4F59F757F
:0C299600C7AA75C755759F80A20A92AFB2
:0129A2002212
:10275900E58730E43BAF84AD85EF25E0FFE433FE48
:10276900ED54017C002FFFEC3EFE74F12FFF74FF46
:102779003EFEEF5401FDEEC313EF1375C7AA75C7EB
:1027890055F58475C7AA75C755AF058F855387EF6A
:01279900221D
:042A2900AF027D017A
:0E2A2D00AE05A806EF088002C313D8FC1322E2
:102A5E00AE05A8067401088002C333D8FC4FFF22CE
:102A4D00AE05A8067401088002C333D8FCF45FFFFD
:012A5D002256
:0E2ABB00AE07EB6003022A5EAF06122A4D2220
:10217E009000D6E0FBA3E0FAA3E0F990000112056F
:04218E00F1FFE4FD7C
:10219200AC07AA05EC54F02470602F24E0605224AE
:1021A200307074122A29E433FBEC540FFDAFB112E4
:1021B2002ABB8FB1AF02E4FD122A2DE433FBEC54AB
:1021C2000FFDAFB2122ABB8FB222122A29E433FBCF
:1021D200EC540FFDAFB3122ABB8FB3AF02E4FD1272
:1021E2002A2DE433FBEC540FFDAFB4122ABB8FB49B
:1021F20022122A29E433FBEC540FFDAFAC122ABBA6
:102202008FACAF02E4FD122A2DE433FBEC540FFD38
:08221200AFAD122ABB8FAD2213
:1020C2009000D6E0FBA3E0FAA3E0F91205D8FFD214
:0120D2000B02
:1020D300EF54F02470605424E070022174243060C3
:1020E30002217DEF540FB408004002217D9020F6B9
:1020F30025E0732106210B21102115211A211F210F
:10210300242129A20B928022A20B928122A20B925C
:102113008222A20B928322A20B928422A20B92858B
:1021230022A20B928622A20B928722EF540FB408AD
:1021330000504790213C25E073214C215121562129
:102143005B21602165216A216FA20B929022A20B71
:10215300929122A20B929222A20B929322A20B9211
:102163009422A20B929522A20B929622A20B9297F3
:0B21730022EF540F7004A20B92B02268
:0F280000E0FBA3E0FAA3E0F99000011205F1FF5D
:10280F00EF54F02470601024E0601424307019EF3E
:10281F00540FFDAF80800EEF540FFDAF908006EF89
:0A282F00540FFDAFB0022A2DC322A2
:0A2AF700EF540F42E844F052E822C9
:0B2AD60030000443E1012253E1FE2226
:051FF900C2EFD2EE2250
:10292800122AF7AF058F95121FF930EFFDE4F595E0
:10293800AFC3EF75F010A4FFAEF0ADC2EF4DFF22AC
:052510009000CDEDF08C
:10251500E49000D0F09000CEE0FF122AF7A3E0F59A
:1025250095E4A3F09000CDE0FF9000D0E0C39F506C
:1025350029121FF930EFFDAFC3EF75F010A4FFAD01
:10254500C2EF4DFFE5F08FF01206B19000D0E00428
:0D255500F0740229F9E43AFA80CAE4F59521
:012562002256
:101F5100E49000B7F0A3F07B017A0079B99000CE4C
:101F61007408F0A37402F07D051225107F02EF259D
:101F7100E024B9F582E43400F583E0FCA3E0FD90B0
:101F810000B8E02DF09000B7E03CF00FEFB405DEB3
:101F91009000B7E0FEA3E0FF7C007D0312063090C5
:101FA10000B7EEF0A3EFF090000BE0FEA3E0FFE43A
:101FB100FCFD9000B312083AE4FF7E10FDFC900096
:101FC100B3E0F8A3E0F9A3E0FAA3E0FB1206D0C066
:101FD10006C0079000B7E0FEA3E0FBAA06E4F9F80B
:101FE100D007D00612075B9000B312083A9000B3F5
:071FF100A3A3E0FEA3E0FF43
:011FF80022C6
:0F2A8E00D293D2941227EBC2941227EBC2932259
:0B2AE1001227EBD2931227EBD29422B5
:102563004408FF122575E94408FF122575A3E044CA
:0225730008FF5F
:02257500AD07B0
:10257700E4FBFA1227EBED30E704D2948002C29411
:10258700ED25E0FDD2931227EBC2930BBB00010AA6
:10259700EB64084A70DD7F147E001227EFD2937F29
:0A25A700197E001227EFC293C294C0
:0125B1002207
:102A6E001205D8FFC454F0FEEFC4540F4E02061EDA
:092456007F887E131227EF7F033B
:02245F00AC07C8
:10246100EC54F090006CF0EC540FA3F07B017A0077
:10247100796D122A6E90006CE0440490006BF0902C
:10248100006DE04404F9122A8E7F4E1225759000EA
:102491006B122571A3E0122563122AE1EC6401603D
:1024A10004ECB402067FD07E0780047F647E0012B4
:0224B10027EF13
:0124B3002206
:10264A00EF54F0FCEF540F90006FF07B017A0079A1
:10265A006F122A6E0C90006FE004F0EC44059000B3
:10266A006EF0A3E04405F9122A8E7F4E122575906A
:10267A00006E122571AF04EF122563122AE17F64FE
:05268A007E000227EFB5
:07268F007F0A7E001228B64D
:10269600122A8E7F4E122575E4FF122575122AE145
:1026A6001227EB7F0312245F1224561224567F88CA
:1026B6007E131227EF7F0212245F7F2812245F7F8A
:0E26C6000612245F7F0C12245F7F0102245F46
:0F2A9D00EFA805088005CEC313CE13D8F9132276
:10296800AB07AA06AF057E007401A807088005C357
:0E29780033CE33CED8F9FFEE4AFEEF4BFF22EE
:10294800AB07AA06AF057E007401A807088005C377
:1029580033CE33CED8F9F4FFEEF45AFEEF5BFF2204
:102A3B008F828E83EB6003022968AE83AF821229EB
:022A4B0048221F
:102717009000E4EBF0A3EAF0A3E9F09000E4E0FB1B
:10272700A3E0FAA3E0F91205D8FFE4FD1221929085
:1027370000E41221819000E41220C59000E4E0FB40
:10274700A3E0FAA3E0F99000011205F1FFD20B0212
:0227570020D38D
:1024B4009000E7EBF0A3EAF0A3E9F09000E7E0FB7B
:1024C400A3E0FAA3E0F99000011205F1FFD20B1288
:1024D40020D39000E71220C59000E71227D7900080
:1024E400E7E0FBA3E0FAA3E0F99000011205F1FF95
:1024F400C20B1220D31227EB9000E7E0FBA3E0FA13
:0C250400A3E0F91205D8FFC20B0220D39F
:1023F7009000EAEBF0A3EAF0A3E9F01227EB9000D4
:10240700EAE0FBA3E0FAA3E0F99000011205F1FF6F
:10241700D20B1220D39000EA1220C59000EA1227AF
:10242700D79000EAE0FBA3E0FAA3E0F990000112DD
:1024370005F1FFC20B1220D31227EB9000EAE0FB55
:0F244700A3E0FAA3E0F91205D8FFC20B0220D3DD
:0E1E88009000D6EBF0A3EAF0A3E9F0A3EDF092
:101E9600E4A3F0C20C12217EE49000DAF09000DA9E
:101EA600E0FDC39408506C9000D9E0FF7E00C37437
:101EB600079DFD122A9D920B9000D6E0FBA3E0FA47
:101EC600A3E0F99000011205F1FF1220D31227EBCF
:101ED6001220C21227EB9000D6E0FBA3E0FAA3E0A3
:101EE600F91205D8FFC20B1220D39000DAE0B4072E
:101EF6001A12217E9000D6E0FBA3E0FAA3E0F99047
:101F060000011205F1FFD20B1220D39000DAE00493
:101F1600F0C1A37F147E001227EF1220C27F197E24
:101F2600001227EF9000D6122800B3920C7F197E7C
:101F3600001227EF9000D6E0FBA3E0FAA3E0F91227
:0A1F460005D8FFC20B1220D3A20C35
:011F5000226E
:0E0F39009000DBEBF0A3EAF0A3E9F0A3EDF0EB
:100F4700E4FCA3F09000DB1221819000DBE0FBA31F
:100F5700E0FAA3E0F99000011205F1FFD20B12208D
:100F6700D3E4FC1227EB9000DB1220C57F077E003D
:100F77001227EF9000DFE025E0F09000DB12280059
:100F870050069000DFE004F07F037E001227EF9009
:100F970000DBE0FBA3E0FAA3E0F91205D8FFC20BE0
:100FA7001220D30CECB408BB1227EB9000DB122104
:100FB700819000DBE0FBA3E0FAA3E0F990000112C7
:100FC70005F1FF9000DEE024FFB3920B1220D3124D
:100FD70027EB9000DB1220C57F327E001227EF90AF
:100FE70000DBE0FBA3E0FAA3E0F91205D8FFC20B90
:080FF7001220D39000DFE0FF9F
:010FFF0022CF
:10231E009000EDEBF0A3EAF0A3E9F09000ED1221AE
:10232E00819000EDE0FBA3E0FAA3E0F9900001122A
:10233E0005F1FFC20B1220D39000EDE0FBA3E0FAF3
:10234E00A3E0F91205D8FFC20B1220D31227EB908F
:10235E0000EDE0FBA3E0FAA3E0F99000011205F115
:10236E00FFD20B1220D31227EB9000EDE0FBA3E07F
:0D237E00FAA3E0F91205D8FFD20B0220D31C
:09180000EEF0A3EFF07D887C13EB
:0A18090090006BECF0FAA3EDF0FB89
:10181300E4FCFD90007112083A900075120846002E
:10182300000000AF03AE02E4FCFD900071E0F8A3FA
:10183300E0F9A3E0FAA3E0FB1206D09000711208CE
:101843003A900071E0FCA3E0FDA3E0FEA3E0FFE417
:10185300FB7A10F9F812075B90007112083AE47FE3
:10186300107E27FDFC900071E0F8A3E0F9A3E0FAF5
:10187300A3E0FB1206D090007512083A900075E0C1
:10188300FCA3E0FDA3E0FEA3E0FFC006C0079000B9
:101893006BE0FEA3E0FF900071E0F8A3E0F9A3E0A2
:1018A300FAA3E0FBC3EF9BFBEE9AFAE499F9E49801
:1018B300F8D007D00612075B90007512083A900023
:1018C30075E0FCA3E0FDA3E0FEA3E0FFE412031A2E
:1018D3001216E290006D12083A90006DE0FCA3E04E
:1018E300FDA3E0FEA3E0FF90264612082A1200FBA8
:1018F30090006DE0F8A3E0F9A3E0FAA3E0FB120087
:10190300FB90006DE0F8A3E0F9A3E0FAA3E0FB127B
:1019130000FBC004C005C006C00790006DE0FCA337
:10192300E0FDA3E0FEA3E0FF90264212082A120086
:10193300FB90263E12082A12000AD003D002D001DF
:10194300D00012000AA804A905AA06AB07E4FFFE0B
:101953007D807C3F12020490006D12083A90006D66
:10196300E0FCA3E0FDA3E0FEA3E0FF7B337A9379E1
:101973008878C312000A90006D12083A90006DE057
:0A198300FCA3E0FDA3E0FEA3E0FFDB
:01198D002237
:042B01008F828E83AE
:032B0500E493FF57
:012B080022AA
:0B200000900072EBF0A3EAF0A3E9F0FF
:10200B00C201A3E4F0A3F0A3F0A3F0A3F0A3F0A309
:10201B00F0A2AF9201C2AF900072E0FBA3E0FAA373
:10202B00E0F94A600FA3EBF0A3EAF0A3E9F090000C
:10203B0068EB800E900068E0F9A3E0FAA3E0900053
:10204B0075C9F0A3EAF0A3E9F0ED4C600AAF059077
:10205B000055ECF0A3EFF09000787437F0A3E4F0A8
:10206B00A3F0A3F0900055E0FEA3E0FF90007AE010
:10207B00FCA3E0FDC39FEC9E5038900079E02DFF50
:10208B00900078E03CFE122B01900075E0FBA3E082
:10209B00FAA3E0F9EF12061E90007BE004F0700645
:1020AB0090007AE004F0900076E475F0011206855A
:0620BB0080B2A20192AF09
:0120C10022FC
:10283900AB07AA06ED75F080A42BFBE5F03AFAEB9D
:10284900F5A6AE02EEF5A775AEFF75C7AA75C75511
:10285900439F0175C7AA75C75543A50175AF227571
:08286900C7AA75C75543A4017D
:012871002244
:101AB300C200900068E0F9A3E0FAA3E090006BC9CC
:101AC300F0A3EAF0A3E9F0900055E0FCA3E0FDAE3B
:101AD300047807CEC313CE13D8F9F9E490006EF05F
:101AE300A3F0A3F0A3F0A2AF9200C2AFED4C70023B
:101AF30061C60990006E7437F0A3E4F0A3F0A3F07D
:101B0300E9FF900070E0FCA3E0FDC39FEC9400505C
:101B13001B90006EE0FEA3E0FF122839900071E0F5
:101B230004F070DC900070E004F080D475C7AA75EF
:101B3300C755439F0175C7AA75C75543A50175AF1F
:101B430021E4900070F0A3F0900055E0FEA3E0FFC5
:101B5300900070E0FCA3E0FDC39FEC9E5043900017
:101B63006EE0FEA3E02DF5A6EEF5A790006BE0FB7B
:101B7300A3E0FAA3E0F91205D8F5AE75C7AA75C7B5
:101B83005543A401122A01900071E004F0700690FD
:101B93000070E004F090006CE475F001120685809B
:101BA300A775C7AA75C75553A5FE75C7AA75C755A7
:101BB300539FFE7B007A007900E4FDFC122000A213
:031BC3000092AFDE
:011BC60022FC
:0F2AAC00D290D2911227EBC2911227EBC2902247
:02279A00AD0789
:10279C00E4FBFA1227EBED30E704D2918002C291F0
:1027AC00ED25E0FDD2901227EBC2900BBB00010A85
:1027BC00EB64084A70DD7F147E001227EFD2907F05
:0A27CC00197E001227EFC290C2919F
:0127D60022E0
:0B2AEC001227EBD2901227EBD29122B0
:102A1500D291D290122AAC7F4812279A7F51122761
:042A25009A022AECFB
:1029030090004AE02439F582E43400F583E0FD7F4A
:012913006A59
:10291400AC05AD07122AACAF0512279AAF041227F3
:042924009A022AECFD
:0226D400AD0750
:1026D600E4FCFBD2911227EBD2907F077E001227F3
:1026E600EFEB25E0FB3091010B7F037E001227EF15
:1026F600C2900CECB408DE1227EBED24FFB39291E6
:102706001227EBD2907F327E001227EFC290AF03E2
:0127160022A0
:1029BE00E4FD122AAC7F4912279A7F011226D4AD6C
:0629CE0007122AECAF0520
:0129D40022E0
:082B0900C3EE940050012222EA
:062872007B017A00790FE2
:1028780090006BEBF0A3EAF0A3E9F090006BE0FBAB
:10288800A3E0FAA3E0F91205D8601790006BA3E45F
:1028980075F00112069BA9F0FA1205D8FF12264A14
:0328A80080D922B2
:061BC70090009B12083A99
:101BCD0090009FE0FCA3E0FDA3E0FEA3E0FF9000EA
:101BDD009BE0F8A3E0F9A3E0FAA3E0FB1202A15009
:101BED001490009FE0FCA3E0FDA3E0FEA3E0FF90B6
:101BFD00009B12083A9000A3E0FCA3E0FDA3E0FED9
:101C0D00A3E0FF90009BE0F8A3E0F9A3E0FAA3E0C6
:101C1D00FB1202A1601640149000A3E0FCA3E0FDAE
:101C2D00A3E0FEA3E0FF90009B12083A90009FE016
:101C3D00F8A3E0F9A3E0FAA3E0FBA3E0FCA3E0FD29
:101C4D00A3E0FEA3E0FF120006C004C005C006C05D
:101C5D00079000A7E0F8A3E0F9A3E0FAA3E0FBA347
:101C6D00E0FCA3E0FDA3E0FEA3E0FF120006D0031D
:101C7D00D002D001D0001202049000AF12083A90A9
:101C8D00009FE0F8A3E0F9A3E0FAA3E0FB90009B2E
:101C9D00E0FCA3E0FDA3E0FEA3E0FF120006900030
:101CAD00AFE0F8A3E0F9A3E0FAA3E0FB1200FB908C
:101CBD0000A7E0F8A3E0F9A3E0FAA3E0FB02000A15
:1028D80075B1FC75B20375B3C675B43975AC01E44E
:1028E800F5ADF580F590F5B0C293C29453B3FD539E
:0B28F800B4FD53B3BF43B440D296229E
:102A7E0020920790000D7401F022E490000DF022D8
:10100000C3900028E094F4900027E064809481501D
:101010000261627F8012245F90006E74FFF0A374FF
:1010200025F0A374FFF07B017A00790F12092212D8
:1010300028727FC012245F7F5412264A7F34122602
:101040004A7F3A12264A90002DE0FEA3E0FFD39497
:1010500000EE94004038EF94E7EE94035030EF94A4
:1010600063EE940090006E74FF400DF0A37426F0C0
:10107000A37414F0A3EE802FF0A37426F0A37418C9
:10108000F090002DE0FFA3E0900071CF8019900058
:101090006E74FFF0A37426F0A3741DF090002DE091
:1010A000FFA3E0900071CFF0A3EFF07B017A00790D
:1010B0000F1209221228727F5412264A7F351226F7
:1010C0004A7F3A12264A90002FE0FEA3E0FFD39415
:1010D00000EE94004038EF94E7EE94035030EF9424
:1010E00063EE940090006E74FF400DF0A37426F040
:1010F000A37414F0A3EE802FF0A37426F0A3741849
:10110000F090002FE0FFA3E0900071CF80199000D5
:101110006E74FFF0A37426F0A3741DF090002FE00E
:10112000FFA3E0900071CFF0A3EFF07B017A00798C
:101130000F1209221228727F5412264A7F36122675
:101140004A7F3A12264A900031E0FEA3E0FFD39492
:1011500000EE94004038EF94E7EE94035030EF94A3
:1011600063EE940090006E74FF400DF0A37426F0BF
:10117000A37414F0A3EE802FF0A37426F0A37422BE
:10118000F0900031E0FFA3E0900071CF8019900053
:101190006E74FFF0A37426F0A37425F0900031E084
:1011A000FFA3E0900071CFF0A3EFF07B017A00790C
:1011B0000F1209221228727F9412245F90006E741D
:1011C000FFF0A37426F0A37429F07B017A00790F55
:1011D0001209221228727FD412245F7F5412264AE9
:1011E0007F3112264A7F3A12264A900033E0FEA34E
:1011F000E0FFD39400EE94004038EF94E7EE9403C0
:101200005030EF9463EE940090006E74FF400DF048
:10121000A37426F0A37414F0A3EE802FF0A3742619
:10122000F0A37418F0900033E0FFA3E0900071CFBA
:10123000801990006E74FFF0A37426F0A3741DF063
:10124000900033E0FFA3E0900071CFF0A3EFF07BBC
:10125000017A00790F1209221228727F5412264A4D
:101260007F3212264A7F3A12264A900035E0FEA3CA
:10127000E0FFD39400EE94004038EF94E7EE94033F
:101280005030EF9463EE940090006E74FF400DF0C8
:10129000A37426F0A37414F0A3EE802FF0A3742699
:1012A000F0A37418F0900035E0FFA3E0900071CF38
:1012B000801990006E74FFF0A37426F0A3741DF0E3
:1012C000900035E0FFA3E0900071CFF0A3EFF07B3A
:1012D000017A00790F1209221228727F5412264ACD
:1012E0007F3312264A7F3A12264A900037E0FEA347
:1012F000E0FFD39400EE94004038EF94E7EE9403BF
:101300005030EF9463EE940090006E74FF400DF047
:10131000A37426F0A37422F0A3EE802FF0A374260A
:10132000F0A37414F0900037E0FFA3E0900071CFB9
:10133000801990006E74FFF0A37426F0A37425F05A
:10134000900037E0FFA3E0900071CFF0A3EFF07BB7
:10135000017A00790F120922122872E4900027F016
:03136000A3F022D5
:101CCD00900027E07004A3E0640A70147D02FF12F7
:101CDD00292890005B12180012035890002DA1A81E
:101CED00900027E07004A3E0641470157D027F015D
:101CFD0012292890005D12180012035890002FA190
:101D0D00A8900027E07004A3E0641E70157D027F8B
:101D1D000212292890005F1218001203589000310A
:101D2D00A1A8900027E07004A3E0642870157D023F
:101D3D007F03122928900061121800120358900099
:101D4D00338058900027E07004A3E0643270157D55
:101D5D00027F041229289000631218001203589074
:101D6D0000358037900027E07004A3E0643C7015C7
:101D7D007D027F0512292890006512180012035864
:101D8D009000378016900027E07004A3E064467041
:101D9D000F7D027F06122928900023EEF0A3EFF0AD
:011DAD002213
:0D2AC900538EBF53DFF843DF0143DE1022C0
:101DAE00C004C005C006C00790009F120846000080
:101DBE0000009000A312084642F000009000A71207
:101DCE000846425C00009000AB12084642B4000088
:101DDE00D007D006D005D004121BC71203589000AE
:101DEE00E012083AA2AF920DC2AF75C7AA75C755D9
:101DFE00759101A20D92AF53DF3F53DFEFE47F03E6
:101E0E00FEFDFC9000E0E0F8A3E0F9A3E0FAA3E009
:101E1E00FB1206D0E47B0AFAF9F812075B78081277
:101E2E0007FB8FC4E47F03FEFDFC9000E0E0F8A307
:101E3E00E0F9A3E0FAA3E0FB1206D0E47B0AFAF97C
:101E4E00F812075B8FCC9000E0E0FCA3E0FDA3E06E
:101E5E00FEA3E0FF78081207FB8FD19000E0A3A34A
:101E6E00A3E0F5D9A2AF920DC2AF75C7AA75C7553B
:091E7E00E4F591A20D92AFD2DF50
:011E87002238
:100D400090002FE0FEA3E0FF90002EE02FFF900028
:100D50002DE03EFE900032E02FFF900031E03EFE9D
:100D60007C007D03120630AC06AD07E412031F9031
:100D7000000412083A900037E0FEA3E0FF9000362E
:100D8000E02FFF900035E03EFE90003AE02FFF900C
:100D90000039E03EFE7C007D03120630AC06AD0754
:100DA000E412031F90005012083A900029E0FEA3BD
:100DB000E0FF90002DE0FCA3E0FDC39FEC9E501AE5
:100DC000C3900030E09F90002FE09E500DC3900034
:100DD00032E09F900031E09E404290000DE0FF70B5
:100DE0001590000AE0700FD295C296D28090005400
:100DF000F090000A04F0EFB40115900054E0700F79
:100E000090000AE0700990005404F090000AF0206D
:100E1000820A90000DE07004C295D296900029E0FD
:100E2000FEA3E0FFC3ED9FEC9E5034C3900030E082
:100E30009F90002FE09E5027C3900032E09F9000CB
:100E400031E09E501A90000DE0FF700A90000AF009
:100E5000C295D296C280EFB40105E4900054F090A0
:100E60000054E0B40132900009E004F070069000F4
:100E700008E004F0D295C296D3900009E094E8907F
:100E80000008E094034011C295D296900054740279
:100E9000F0E4900008F0A3F090002BE0FEA3E0FF48
:100EA000900033E0FCA3E0FDC39FEC9E501AC3907A
:100EB0000036E09F900035E09E500DC3900038E072
:100EC0009F900037E09E402E90000DE0FFB4011986
:100ED00090000AE07013900054E0B4020CD295C266
:100EE00096D28090000A7401F0EF6401704A20826B
:100EF00047C295D2962290002BE0FEA3E0FFC3EDFF
:100F00009FEC9E5033C3900036E09F900035E09EEA
:100F10005026C3900038E09F900037E09E50199013
:100F2000000DE0B40112900054E0B40204C295D266
:090F300096C280E490000AF02250
:10136300900045E0B4440D90005AE004F07FC87E3D
:10137300001228B690005AE0C394024002E4F090B1
:10138300005AE0600281FF12290390004BE02439E8
:10139300F582E43400F583E0FD7F6C12291490009C
:1013A3004CE02439F582E43400F583E0FD7F6E12CE
:1013B30029147D387F6812291490004BE075F00AD8
:1013C300A4FDACF090004AE075F064A42DFFE5F0B5
:1013D3003CFE90004CE07C002FFFEC3EFE90002989
:1013E300E06E7003A3E06F600A900029EEF0A3EFB4
:1013F300F0816F900029E0FCA3E0FD6F7002EC6EBA
:101403007063900025E064057004A3E064DC70451C
:10141300D3ED9478EC94004009900029E4F0A37490
:1014230078F0900057E0FF900029E0FCA3E0FD6F07
:101433007001EC6019900057EDF0121AB31228AB4B
:101443007D387F681229147F147E001228B6E49039
:101453000025F0A3F0900026E004F0700F90002523
:10146300E004F08007E4900025F0A3F0900045E04D
:10147300FF64456005EF644D701612290390004A1E
:10148300E004F0E0C3940A4002E4F090004AC10F84
:10149300900045E0FF64466005EF645670279000B6
:1014A3004BE02439F582E43400F583E0FD7F6C12D0
:1014B300291490004BE004F0E0C3940A4002E4F0E6
:1014C30090004BC152900045E0FF64476007EF6412
:1014D3005F6002C1AD90004CE02439F582E4340032
:1014E300F583E0FD7F6E12291490004CE004F0E0D8
:1014F300C3940A4002E4F090004CC19590005AE076
:1015030064016002C1AD90004D12290690004EE0C7
:101513002439F582E43400F583E0FD7F6C1229144D
:1015230090004FE02439F582E43400F583E0FD7F39
:101533006E1229147D767F6812291490004EE0758F
:10154300F00AA4FDACF090004DE075F064A42DFF0B
:10155300E5F03CFE90004FE07C002FFFEC3EFE9058
:10156300002BE06E7003A3E06F600A90002BEEF097
:10157300A3EFF0807290002BE0FCA3E0FD6F7002FC
:10158300EC6E705C900025E064057004A3E064DCFD
:10159300703ED3ED9478EC9400400990002BE4F076
:1015A300A37478F0900058E0FF90002BE0FCA3E0D8
:1015B300FD6F7001EC6012900058EDF0121AB31237
:1015C30028AB7D767F68122914E4900025F0A3F000
:1015D300900026E004F0700F900025E004F08007EF
:1015E300E4900025F0A3F0900045E0FF644560051A
:1015F300EF644D702790004D12290690004DE004D2
:10160300F0E0C3940A4002E4F090004DE02439F581
:1016130082E43400F583E0FD7F6AC1A3900045E0D6
:10162300FF64466005EF6456703590004EE0243940
:10163300F582E43400F583E0FD7F6C1229149000F9
:101643004EE004F0E0C3940A4002E4F090004EE060
:101653002439F582E43400F583E0FD7F6C8041900A
:101663000045E0FF64476005EF645F703D90004F05
:10167300E02439F582E43400F583E0FD7F6E12291E
:101683001490004FE004F0E0C3940A4002E4F090A9
:10169300004FE02439F582E43400F583E0FD7F6EEA
:0B16A3001229147FC87E001228B62216
:10198E001227591228D8D200122AD61226961226BB
:10199E008F12268F12268F12268F7F0A7E00122814
:1019AE00B6122A157D3F7F681229147D3F7F6A1279
:1019BE0029147D3F7F6C1229147D3F7F6E122914EE
:1019CE007B017A0079577D037C001220009000572E
:1019DE00E0FF900029E4F0A3EFF0900058E0FF90B4
:1019EE00002BE4F0A3EFF0121AB37F147E0012283E
:1019FE00B6900029E0FAA3E0FB7C007D64FFAE0206
:101A0E0012063090004AEFF07C007D0AAF03AE0262
:101A1E001206307C007D0A120630A3EDF0900029EC
:101A2E00E0FEA3E0FF7C007D0A12063090004CED34
:101A3E00F090002BE0FAA3E0FB7C007D64FFAE0289
:101A4E0012063090004DEFF07C007D0AAF03AE021F
:101A5E001206307C007D0A120630A3EDF090002BAA
:101A6E00E0FEA3E0FF7C007D0A12063090004FEDF1
:101A7E00F01229BE900045EFF0121363900048E07B
:101A8E0070EF121CCD122A7E121000120D40900023
:101A9E0028E004F07006900027E004F07F017E003D
:051AAE001228B680CCF7
:100003000203C4E86480F8E933E83360110460F064
:10001300ED33EC337009E8FCE9FDEAFEEBFF220463
:1000230060DED3EB9FEA9EE99DE8C2E78CF0C2F75E
:1000330095F0400CE8CCF8E9CDF9EACEFAEBCFFB2A
:1000430012038F85D0F05804700320D5B3E80470F1
:10005300075002B2D50203CE92D5EC0460F7E4CC8C
:10006300C0E0C398F8603B94186008400DD0E0FBF3
:100073000203A6E4FBFAC9FC8028E830E406E4C9DD
:10008300FBE4CAFCE830E305E4C9CACBFCE8540747
:100093006010F8C3E913F9EA13FAEB13FBEC13FC52
:1000A300D8F130F52FC3E49CFCEF9BFFEE9AFEEDF5
:1000B30099FDD0E0FBEF4E4D4C701222DB0302039F
:1000C300CBEC2CFCEF33FFEE33FEED33FDED30E7ED
:1000D300EB0203A6EF2BFFEE3AFEED39FDD0E0FB7A
:1000E30050130BBB00030203CEED13FDEE13FEEF23
:0800F30013FFEC13FC0203A64D
:1000FB00EC4D6011E8497017ED33EC3304600DE4FF
:10010B00FCFFFEFD22E933E8330470F80203C4124E
:10011B00038F58046009E4CC24815006285009024F
:10012B0003CE2840030203CBC0E0EB4A7044B980F6
:10013B0006D0E0FB0203BAEF4E701CBD8008EBFF4C
:10014B00EAFEE9FD80EBE98DF0A4FEE5F00201E4A7
:10015B00E9CDF9EAFEEBFFEF89F0A4FCE5F0CE89DF
:10016B00F0A42EFFE435F0CD89F0A42DFEE435F09C
:10017B008067EF4E7005BD80D780C3EF8BF0A4ACCA
:10018B00F0EE8BF0A42CFCE435F0F8EF8AF0A42C05
:10019B00E5F038FCE433CB8DF0A42CFCE5F03BF818
:1001AB00EE8AF0A42CFCE5F038F8E433CF89F0A408
:1001BB002CFCE5F038CF3400CE89F0A42FFFE5F00E
:1001CB003EFEE433C98DF0A42EFEE5F039CD8AF066
:1001DB00A42FFFE5F03EFEE43DFD33D0E0FB5007DE
:1001EB000BBB000F0203CEEC2CFCEF33FFEE33FE08
:0601FB00ED33FD0203A636
:100201000203CEEC5D046005E8590470030203C4E7
:1002110012038F580460F6EC4860F2EC7004FDFEA6
:10022100FF22C860DB2481C85009C39860025006D0
:100231000203CB9850CAF582E9294B4A7005AB827B
:100241000203BA75F0007C1A7880C3EF9BEE9AED39
:1002510099400DC3EF9BFFEE9AFEED99FDE842F048
:10026100DC23ACF0D0E0FFD0E0FED0E0FDAB82209B
:10027100E7101BEB60BAEC2CFCEF33FFEE33FEED25
:1002810033FD0203A6E803F830E705C0F075F0007E
:10029100EF2FFFEE33FEED33FD40B830E7C280AA09
:1002A10074F8CC6480CCC86480C8F58204604FC304
:1002B100EB9FF5F0EA9E42F0E99D42F0E89C45F0A3
:1002C100603C501DE5825FFFE582D313CB5BCBF42D
:1002D1002B5582FB50280ABA002409B90020088056
:1002E1001DE5825BFBE582D313CF5FCFF4C3132FF0
:1002F1005582FF50090EBE00050DBD00010CC3EB78
:100301009FF5F0EA9E42F0E99D42F0E89C45F060DD
:0903110007CC4820E701B3EC22FF
:10031A0075F020800E75F010800575F0087D007E5E
:10032A00007F003392D530D5031207EDEC3340102D
:10033A00EF33FFEE33FEED33FDEC33FCD5F0ED2267
:0E034A00E5F0247EA2D513CC92E7CDCEFF22A3
:10035800EDD2E7CD33EC3392D524814006E4FFFE9D
:10036800FDFC22FCE4CFCECDCC24E0501174FF80FC
:10037800EDC3CC13CCCD13CDCE13CECF13CF047099
:07038800F030D5DE0207EDA5
:1008BD00E508246EF582E43400F583E00508229006
:1008CD00006B30070390006EE475F001120877029B
:1008DD0005D82000E97F2ED2008018EF540F249008
:1008ED00D43440D4FF30040BEF24BFB41A005003AE
:1008FD002461FFE50960021509050CE50C70020580
:10090D000B30070E90006BE475F001120877EF02C3
:10091D00061E0217D77403D2078003E4C207F50839
:10092D0090006B12088EE4F509F50BF50CE50960E6
:10093D00077F2012090080F5750AFFC201C200C2AF
:10094D0002C203C205C206C2081208CCFF700D30E8
:10095D0007057F00120911AF0CAE0B22B4255FC243
:10096D00D5C2041208CCFF24D0B40A00501A75F079
:10097D000A780930D50508B6FF0106C6A426F6206B
:10098D00D5047002D20380D924CFB41A00EF5004DD
:10099D00C2E5D204020C03D20180C6D20080C0D2BF
:1009AD000280BCD2D580BAD20580B47F2012090056
:1009BD002002077401B5090040F11208BDFF1209AC
:1009CD000002093AD208D20680951208BDFB120822
:1009DD00BDFA1208BDF94A4B700679017A0D7BFFFD
:1009ED0020022EE509602A7E008E82758300120595
:1009FD00F160060EEE650A70F0C2D5EBC0E0EAC0FC
:100A0D00E0E9C0E0EE120C64D0E0F9D0E0FAD0E0FD
:100A1D00FB1205D8FF60AAEBC0E0EAC0E0E9C0E038
:100A2D00120900D0E02401F9D0E03400FAD0E0FB47
:100A3D00E50A0460DCD50AD98087D20280A2120CA7
:100A4D004660F7E50A7001041203D9A90A600DE5A5
:100A5D000A600914F50A120CEEEF60F3EA30E702B2
:100A6D00F404C3995079EAF4250A0430E701E4044B
:100A7D00F50A800D120C4660C1EA050A250A12031B
:100A8D00D9EA90009AF030E701E4250A04D50A046A
:100A9D0020050114120C64E4C0E0120CEE90009AD3
:100AAD00E0601320E70714F01208E8802204F0D06C
:100ABD00E014C0E07F001208E8E50A60071208DFC5
:100ACD00150A800B3005031208DFD0E002093AD079
:100ADD00E00480C4120C46609EE50A041203D9900E
:100AED00009AEAF0E50A2005026001042404120CC4
:010AFD006494
:100AFE0074FF04C0E0120CEE1208E8E50A200502AD
:100B0E0060031208DFD0E0B50AE87F451208F290C4
:100B1E00009AE07F2B30E7047F2DF404C0E0120929
:100B2E0000D0E075F00A84C0F01208E9D0E0120897
:100B3E00E902093A791080027908C206C2088008D3
:100B4E00D2D5790A8004790AC2D5E50A047002F575
:100B5E000AE4FAFDFEFF1208BDFC7B082001131209
:100B6E0008BDFD7B1030000A1208BDFE1208BDFF45
:100B7E007B20EC3382D592D55013C3E43000069F10
:100B8E00FFE49EFEE42001039DFDE49CFCE4CBF813
:100B9E00C201EC700CCFCECDCCE824F8F870F38007
:100BAE0017C3EF33FFEE33FEED33FDEC33FCEB33C7
:100BBE00FB994002FB0FD8E9EB300105F8D0E0C4F9
:100BCE0048B201C0E00AEC4D4E4F78207B0070C257
:100BDE00EAB50A0040BCC0E0120C66D0F0D0E020AE
:100BEE000104C4C0E0C4B201C0F01208E9D0F0D5CF
:100BFE00F0EB02093A12089709D7530B425809A88D
:100C0E004C09A4420B464F0B4E440B4E4909BD43B3
:100C1E000B54550A81460AE1450A4B470D215009EE
:100C2E00AC2D09B02E09D32B09B42309D1200D0AFE
:100C3E002A096C48000009CBE50AB4FF03750A06C1
:100C4E001208BDFC1208BDFD1208BDFE1208BDFF44
:100C5E00900093020416790AA2D5200314300509D8
:100C6E00B910020404B9080104A2D52006025001ED
:100C7E00042002689202B509005034C0E07F203093
:100C8E0003197F30A20272067205500F120CBDC2FC
:100C9E0002C206C205C2087F30800F300503E9C0CC
:100CAE00E0120900300503D0E0F9D0E0B509CC30F0
:100CBE0005177F30B9100C1209007F583004077FDA
:100CCE00788003B908031209003002057F2D02094E
:100CDE00007F202008F87F2B2006F322920280CF7F
:100CEE007F00B40700500B2493F582E43400F583A3
:100CFE00E0FF22286E756C6C2900D2011208BD30FF
:100D0E0001F8C201780930D50108F602096C2D50A0
:100D1E004349581208BD2403B405004001E4900D68
:100D2E001C931208F1743A1208F1D20375090402E9
:020D3E000B4266
:1016AE003E9248DA3ECCCCCD3F2AAAAB4000000099
:1016BE003F8000003F9837F03FB504F33FD744FC1E
:1016CE003E3172173EB172173F0515913EDE5BD962
:1016DE00D2008002C200EDD2E7F8CD33EC330470B5
:1016EE000BBD800592D50203CE0203C440FBD3147A
:1016FE0060F2F5F07C3FEE7A00C39496C8948B406E
:10170E00230AC89469C8941A401A0AC89468C894DF
:10171E001F40110AC8945AC89425400805F07A0053
:10172E00CDC2E7CDC0F090007912083AEA2323C06B
:10173E00E024BEF582E43416F58312082A12000A5C
:10174E00ECC0E0EDC0E0EEC0E0EFC0E012080E909D
:10175E00007912081E120006D0E0FBD0E0FAD0E0AD
:10176E00F9D0E0B2E7F812020490007912083A902C
:10177E0016AE740312051B90007912081E1200FBA0
:10178E00D0E0600F24CAF582E43416F58312082ADD
:10179E0012000A90007912083AD0E0C3947FFDE45B
:1017AE009400FC12031F7B187A727931783F120075
:1017BE00FB90007912081E12000A30000B7BD97ABA
:0917CE005B79DE783E1200FB227B
:10038F00E9D2E7C933E833F892D5EDD2E7CD33ECB4
:07039F0033FC5002B2D5222D
:1003A600EC30E7100FBF000C0EBE00080DBD0004B8
:1003B6000BEB6014A2D5EB13FCED92E7FD2274FF64
:1003C600FCFDFEFF22E480F8A2D574FF13FC7D80BD
:0303D600E480EFD1
:1003D900F920E73624F950037907E4F42402FBE510
:1003E90082158270021583DBF6E024FB501BE9605D
:1003F90014E4F0E582158270021583E004F0B40A72
:0D04090008E4F0D9EE7401F00A22C2D522F9
:10041600ED33EC3392D5FA602AB4FF33EDC2E77BB5
:10042600FF60067A04793BE4227A04794420D504F5
:100436007A04793F224E614E002B494E46002D49E3
:100446004E4600E47A08F0A3DAFC7B00740722C06B
:1004560083C082ECC0E0EDC0E0EEC0E0EFC0E0EAB1
:1004660075F010A4CAABF075F04DA42BFBE435F083
:10047600FCEA2410FAEB34C5FBEC34D9FCEDC2E7F8
:10048600FF75F056A4F42411C5F0F434C58FF0A41A
:100496002AE5F03BE43CF020E714120598D0E0FF93
:1004A600D0E0FED0E0FDD0E0FC1202048014F4049B
:1004B600120598D0E0FFD0E0FED0E0FDD0E0FC12BF
:1004C60000FBD082D083E0FAEDD2E7CD33EC3324C3
:1004D60082FBE4C3CF33CFCE33CECD33CD33DBF384
:1004E6007B0775F00A846004F0A31B0AE5F0F0A30D
:1004F6008FF0740AA4FFACF08EF0740AA42CFEAC44
:10050600F050010C8DF0740AA42CFDE435F0F0A334
:05051600DBDE7407228A
:10051B00C0E0EFFBEEFAEDF9ECF81200FBD0E0F5E2
:10052B00F0EFFBEEFAEDF9ECF812080EA3A3A3A380
:10053B00E8C0E0E9C0E0EAC0E0EBC0E0C0F01200C8
:10054B00FB12082AA3A3A3A312000AD0F0D0E0FB4E
:0D055B00D0E0FAD0E0F9D0E0F8D5F0D422DD
:100568003F8000004120000042C80000447A00009B
:10057800461C400047C35000497424004B1896801D
:100588004CBEBC205A0E1BCA6753C21C749DC5AE14
:10059800FB60065407601C23231205C6EB54386021
:1005A800091205B21205C11200FBECF8EDF9EEFADA
:1005B800EFCB22EB1205C180F1543803241C9005BF
:1005C80068FE93FC0EEE93FD0EEE930ECE93FF2283
:0300000002221ABF
:0C221A00787FE4F6D8FD75812102226176
:1005D800BB010689828A83E0225002E722BBFE0221
:0905E800E32289828A83E4932254
:1005F100BB010CE58229F582E5833AF583E02250BF
:1006010006E92582F8E622BBFE06E92582F8E22208
:0D061100E58229F582E5833AF583E4932222
:10061E00BB010689828A83F0225002F722BBFE01BB
:02062E00F322B5
:10063000BC000BBE0029EF8DF084FFADF022E4CCAE
:10064000F875F008EF2FFFEE33FEEC33FCEE9DEC77
:10065000984005FCEE9DFE0FD5F0E9E4CEFD22EDBD
:10066000F8F5F0EE8420D21CFEADF075F008EF2F07
:10067000FFED33FD4007985006D5F0F222C398FDF8
:050680000FD5F0EA2295
:10068500C5F0F8A3E028F0C5F0F8E5821582700200
:060695001583E038F0229D
:10069B00A3F8E0C5F025F0F0E58215827002158312
:0606AB00E0C838F0E8226F
:1006B100BB010A89828A83F0E5F0A3F0225006F794
:0F06C10009A7F01922BBFE06F3E5F009F3192291
:1006D000E88FF0A4CC8BF0A42CFCE98EF0A42CFCC9
:1006E0008AF0EDA42CFCEA8EF0A4CDA8F08BF0A447
:1006F0002DCC3825F0FDE98FF0A42CCD35F0FCEBA6
:100700008EF0A4FEA9F0EB8FF0A4CFC5F02ECD396A
:0F071000FEE43CFCEAA42DCE35F0FDE43CFC22D7
:10071F0075F008758200EF2FFFEE33FECD33CDCC91
:10072F0033CCC58233C5829BED9AEC99E582984014
:10073F000CF582EE9BFEED9AFDEC99FC0FD5F0D6F1
:10074F00E4CEFBE4CDFAE4CCF9A88222B800C1B91B
:10075F000059BA002DEC8BF084CFCECDFCE5F0CB59
:10076F00F97818EF2FFFEE33FEED33FDEC33FCEB92
:10077F0033FB10D703994004EB99FB0FD8E5E4F94D
:10078F00FA227818EF2FFFEE33FEED33FDEC33FC3A
:10079F00C933C910D7059BE99A4007EC9BFCE99A2E
:1007AF00F90FD8E0E4C9FAE4CCFB2275F010EF2F73
:1007BF00FFEE33FEED33FDCC33CCC833C810D70773
:1007CF009BEC9AE899400AED9BFDEC9AFCE899F8AE
:0E07DF000FD5F0DAE4CDFBE4CCFAE4C8F92241
:0E07ED00C3E49FFFE49EFEE49DFDE49CFC221D
:1007FB00E8600FECC313FCED13FDEE13FEEF13FFDC
:03080B00D8F122FF
:10080E00E493FC740193FD740293FE740393FF2230
:0C081E00E0F8A3E0F9A3E0FAA3E0FB225D
:10082A00E493F8740193F9740293FA740393FB2224
:0C083A00ECF0A3EDF0A3EEF0A3EFF02231
:10084600A8828583F0D083D08212085D12085D12DB
:10085600085D12085DE473E493A3C583C5F0C58300
:10086600C8C582C8F0A3C583C5F0C583C8C582C8FC
:01087600225F
:10087700F8E0FBA3A3E0F925F0F0E582158270020A
:070887001583E0FA38F022AE
:09088E00EBF0A3EAF0A3E9F0226B
:10089700D083D082F8E4937012740193700DA3A3F0
:1008A70093F8740193F5828883E473740293686004
:0608B700EFA3A3A380DF04
:1017D700EFB40A07740D1217E2740A309811A8992A
:1017E700B8130CC2983098FDA899C298B811F63072
:0717F70099FDC299F599224A
:1022260002198EE493A3F8E493A34003F68001F227
:1022360008DFF48029E493A3F85407240CC8C333B9
:10224600C4540F4420C8834004F456800146F6DF88
:10225600E4800B010204081020408090238BE47E6A
:10226600019360BCA3FF543F30E509541FFEE4937D
:10227600A360010ECF54C025E060A840B8E493A344
:10228600FAE493A3F8E493A3C8C582C8CAC583CA6F
:10229600F0A3C8C582C8CAC583CADFE9DEE780BE27
:0123F60000E6
:00000001FF
